{
  "contractName": "Fnd",
  "abi": [
    {
      "inputs": [],
      "payable": false,
      "stateMutability": "nonpayable",
      "type": "constructor",
      "signature": "constructor"
    },
    {
      "constant": false,
      "inputs": [],
      "name": "createPost",
      "outputs": [],
      "payable": false,
      "stateMutability": "nonpayable",
      "type": "function",
      "signature": "0x45612d20"
    },
    {
      "constant": false,
      "inputs": [
        {
          "name": "toValidator",
          "type": "address"
        }
      ],
      "name": "register",
      "outputs": [],
      "payable": false,
      "stateMutability": "nonpayable",
      "type": "function",
      "signature": "0x4420e486"
    },
    {
      "constant": false,
      "inputs": [
        {
          "name": "voter",
          "type": "address"
        },
        {
          "name": "trueorfalse",
          "type": "uint256"
        },
        {
          "name": "id",
          "type": "uint256"
        }
      ],
      "name": "vote",
      "outputs": [
        {
          "name": "",
          "type": "string"
        }
      ],
      "payable": false,
      "stateMutability": "nonpayable",
      "type": "function",
      "signature": "0x2a4a1b73"
    },
    {
      "constant": true,
      "inputs": [
        {
          "name": "id",
          "type": "uint256"
        }
      ],
      "name": "NewsResult",
      "outputs": [
        {
          "name": "",
          "type": "string"
        }
      ],
      "payable": false,
      "stateMutability": "view",
      "type": "function",
      "signature": "0x81add39d"
    }
  ],
  "bytecode": "0x6080604052600061012f5534801561001657600080fd5b506000805433600160a060020a031991821681178355600180549092161790556104e990819061004690396000f3fe6080604052600436106100615763ffffffff7c01000000000000000000000000000000000000000000000000000000006000350416632a4a1b7381146100665780634420e4861461011a57806345612d201461014f57806381add39d14610164575b600080fd5b34801561007257600080fd5b506100a56004803603606081101561008957600080fd5b50600160a060020a03813516906020810135906040013561018e565b6040805160208082528351818301528351919283929083019185019080838360005b838110156100df5781810151838201526020016100c7565b50505050905090810190601f16801561010c5780820380516001836020036101000a031916815260200191505b509250505060405180910390f35b34801561012657600080fd5b5061014d6004803603602081101561013d57600080fd5b5035600160a060020a0316610329565b005b34801561015b57600080fd5b5061014d6103a8565b34801561017057600080fd5b506100a56004803603602081101561018757600080fd5b5035610414565b33600090815261012e6020526040902060028101546060919060ff16156101b457600080fd5b6000600284606481106101c357fe5b600302016001018190555060006002846064811015156101df57fe5b60030201600290810191909155600160a060020a038616600090815261012e602052604090209081018054600160ff1990911617905560648410156102e95784600114156102885760016002856064811061023657fe5b60030201600101600082825401925050819055506040805190810160405280601281526020017f5375636365737366756c6c7920766f7465640000000000000000000000000000815250925050610321565b60016002856064811061029757fe5b60030201600201600082825401925050819055506040805190810160405280601281526020017f5375636365737366756c6c7920766f7465640000000000000000000000000000815250925050610321565b5060408051808201909152601b81527f566f74696e67206661696c656421212120496e76616c69642049640000000000602082015291505b509392505050565b600054600160a060020a0316331461034057600080fd5b600154600160a060020a0316331415806103765750600160a060020a038116600090815261012e602052604090206002015460ff165b15610380576103a5565b600160a060020a038116600090815261012e60205260409020600201805460ff191690555b50565b60606040519081016040528061012f548152602001600081526020016000815250600261012f546064811015156103db57fe5b60030201600082015181600001556020820151816001015560408201518160020155905050600161012f60008282540192505081905550565b60606002826064811061042357fe5b600302016002015460028360648110151561043a57fe5b60030201600101541115610482575060408051808201909152600981527f5265616c206e657773000000000000000000000000000000000000000000000060208201526104b8565b5060408051808201909152600981527f46616b65206e657773000000000000000000000000000000000000000000000060208201525b91905056fea165627a7a723058207f28627d2f2a04076c3239f33eb03e362f217d98073c6fbd6e597c2a5ba5056c0029",
  "source": "//SPDX-License-Identifier: MIT\npragma solidity >=0.4.0;\n\ncontract Fnd\n{\n    address admin;\n    \n    struct Validator\n    {\n        uint cred_score;\n        int vote;\n        bool hasVoted;\n    }\n    struct News\n    {\n        uint nid;\n        uint weight_true;\n        uint weight_false;\n    }\n    address auth;\n    News[100] news;\n    mapping(address => Validator) validators;\n    uint  index=0; \n    \n    \n    modifier restricted()\n    {\n        require(msg.sender == admin);\n        _;\n    }\n    \n    constructor() public\n    {\n        admin = msg.sender;\n        auth = msg.sender;\n        \n    }\n     function createPost() public {\n        news[index]=News(index,0,0);\n        index+=1;\n        \n    }\n    function register(address toValidator) restricted public {\n        if (msg.sender != auth || validators[toValidator].hasVoted) return;\n        \n        validators[toValidator].hasVoted = false;\n    }\n     modifier alreadyVoted()\n    {\n         Validator storage sender = validators[msg.sender];\n         require(sender.hasVoted==false);\n        _;\n    }\n    \n     function vote(address voter,uint trueorfalse, uint id) alreadyVoted public returns(string memory) {\n         news[id].weight_true = 0;\n         news[id].weight_false = 0;\n         Validator storage sender = validators[voter];\n        sender.hasVoted = true;\n        if(id<news.length){\n         if(trueorfalse == 1)\n         {\n             news[id].weight_true += 1;\n             return(\"Successfully voted\");\n         }\n         else\n         {\n             news[id].weight_false += 1;\n             return(\"Successfully voted\");\n         }\n        }\n        else{\n            return \"Voting failed!!! Invalid Id\";\n        }\n        \n        \n    }\n    function NewsResult(uint id) public view returns (string memory){\n        if(news[id].weight_true > news[id].weight_false)\n        {\n            return \"Real news\";\n        }\n        else\n        {\n            return \"Fake news\";\n        }\n    }\n}",
  "sourcePath": "/Users/sudersan/Documents/FakeNewsDetection/contracts/Fnd.sol",
  "compiler": {
    "name": "solc",
    "version": "0.5.0+commit.1d4f565a.Emscripten.clang"
  },
  "schemaVersion": "3.0.1",
  "updatedAt": "2021-05-26T15:47:36.260Z",
  "devdoc": {
    "methods": {}
  },
  "userdoc": {
    "methods": {}
  }
}